{
  "_format": "hh-sol-artifact-1",
  "contractName": "MyEpicNFT",
  "sourceName": "contracts/MyEpicNFT.sol",
  "abi": [
    {
      "inputs": [],
      "stateMutability": "nonpayable",
      "type": "constructor"
    },
    {
      "anonymous": false,
      "inputs": [
        {
          "indexed": true,
          "internalType": "address",
          "name": "owner",
          "type": "address"
        },
        {
          "indexed": true,
          "internalType": "address",
          "name": "approved",
          "type": "address"
        },
        {
          "indexed": true,
          "internalType": "uint256",
          "name": "tokenId",
          "type": "uint256"
        }
      ],
      "name": "Approval",
      "type": "event"
    },
    {
      "anonymous": false,
      "inputs": [
        {
          "indexed": true,
          "internalType": "address",
          "name": "owner",
          "type": "address"
        },
        {
          "indexed": true,
          "internalType": "address",
          "name": "operator",
          "type": "address"
        },
        {
          "indexed": false,
          "internalType": "bool",
          "name": "approved",
          "type": "bool"
        }
      ],
      "name": "ApprovalForAll",
      "type": "event"
    },
    {
      "anonymous": false,
      "inputs": [
        {
          "indexed": false,
          "internalType": "address",
          "name": "sender",
          "type": "address"
        },
        {
          "indexed": false,
          "internalType": "uint256",
          "name": "tokenId",
          "type": "uint256"
        }
      ],
      "name": "NewEpicNFTMinted",
      "type": "event"
    },
    {
      "anonymous": false,
      "inputs": [
        {
          "indexed": true,
          "internalType": "address",
          "name": "from",
          "type": "address"
        },
        {
          "indexed": true,
          "internalType": "address",
          "name": "to",
          "type": "address"
        },
        {
          "indexed": true,
          "internalType": "uint256",
          "name": "tokenId",
          "type": "uint256"
        }
      ],
      "name": "Transfer",
      "type": "event"
    },
    {
      "inputs": [
        {
          "internalType": "address",
          "name": "to",
          "type": "address"
        },
        {
          "internalType": "uint256",
          "name": "tokenId",
          "type": "uint256"
        }
      ],
      "name": "approve",
      "outputs": [],
      "stateMutability": "nonpayable",
      "type": "function"
    },
    {
      "inputs": [
        {
          "internalType": "address",
          "name": "owner",
          "type": "address"
        }
      ],
      "name": "balanceOf",
      "outputs": [
        {
          "internalType": "uint256",
          "name": "",
          "type": "uint256"
        }
      ],
      "stateMutability": "view",
      "type": "function"
    },
    {
      "inputs": [
        {
          "internalType": "uint256",
          "name": "tokenId",
          "type": "uint256"
        }
      ],
      "name": "getApproved",
      "outputs": [
        {
          "internalType": "address",
          "name": "",
          "type": "address"
        }
      ],
      "stateMutability": "view",
      "type": "function"
    },
    {
      "inputs": [
        {
          "internalType": "address",
          "name": "owner",
          "type": "address"
        },
        {
          "internalType": "address",
          "name": "operator",
          "type": "address"
        }
      ],
      "name": "isApprovedForAll",
      "outputs": [
        {
          "internalType": "bool",
          "name": "",
          "type": "bool"
        }
      ],
      "stateMutability": "view",
      "type": "function"
    },
    {
      "inputs": [],
      "name": "makeAnEpicNFT",
      "outputs": [],
      "stateMutability": "nonpayable",
      "type": "function"
    },
    {
      "inputs": [],
      "name": "mintedNFTs",
      "outputs": [
        {
          "internalType": "uint256",
          "name": "",
          "type": "uint256"
        }
      ],
      "stateMutability": "view",
      "type": "function"
    },
    {
      "inputs": [],
      "name": "name",
      "outputs": [
        {
          "internalType": "string",
          "name": "",
          "type": "string"
        }
      ],
      "stateMutability": "view",
      "type": "function"
    },
    {
      "inputs": [
        {
          "internalType": "uint256",
          "name": "tokenId",
          "type": "uint256"
        }
      ],
      "name": "ownerOf",
      "outputs": [
        {
          "internalType": "address",
          "name": "",
          "type": "address"
        }
      ],
      "stateMutability": "view",
      "type": "function"
    },
    {
      "inputs": [
        {
          "internalType": "uint256",
          "name": "tokenId",
          "type": "uint256"
        }
      ],
      "name": "pickRandomFirstWord",
      "outputs": [
        {
          "internalType": "string",
          "name": "",
          "type": "string"
        }
      ],
      "stateMutability": "view",
      "type": "function"
    },
    {
      "inputs": [
        {
          "internalType": "uint256",
          "name": "tokenId",
          "type": "uint256"
        }
      ],
      "name": "pickRandomSecondWord",
      "outputs": [
        {
          "internalType": "string",
          "name": "",
          "type": "string"
        }
      ],
      "stateMutability": "view",
      "type": "function"
    },
    {
      "inputs": [
        {
          "internalType": "uint256",
          "name": "tokenId",
          "type": "uint256"
        }
      ],
      "name": "pickRandomThirdWord",
      "outputs": [
        {
          "internalType": "string",
          "name": "",
          "type": "string"
        }
      ],
      "stateMutability": "view",
      "type": "function"
    },
    {
      "inputs": [
        {
          "internalType": "address",
          "name": "from",
          "type": "address"
        },
        {
          "internalType": "address",
          "name": "to",
          "type": "address"
        },
        {
          "internalType": "uint256",
          "name": "tokenId",
          "type": "uint256"
        }
      ],
      "name": "safeTransferFrom",
      "outputs": [],
      "stateMutability": "nonpayable",
      "type": "function"
    },
    {
      "inputs": [
        {
          "internalType": "address",
          "name": "from",
          "type": "address"
        },
        {
          "internalType": "address",
          "name": "to",
          "type": "address"
        },
        {
          "internalType": "uint256",
          "name": "tokenId",
          "type": "uint256"
        },
        {
          "internalType": "bytes",
          "name": "_data",
          "type": "bytes"
        }
      ],
      "name": "safeTransferFrom",
      "outputs": [],
      "stateMutability": "nonpayable",
      "type": "function"
    },
    {
      "inputs": [
        {
          "internalType": "address",
          "name": "operator",
          "type": "address"
        },
        {
          "internalType": "bool",
          "name": "approved",
          "type": "bool"
        }
      ],
      "name": "setApprovalForAll",
      "outputs": [],
      "stateMutability": "nonpayable",
      "type": "function"
    },
    {
      "inputs": [
        {
          "internalType": "bytes4",
          "name": "interfaceId",
          "type": "bytes4"
        }
      ],
      "name": "supportsInterface",
      "outputs": [
        {
          "internalType": "bool",
          "name": "",
          "type": "bool"
        }
      ],
      "stateMutability": "view",
      "type": "function"
    },
    {
      "inputs": [],
      "name": "symbol",
      "outputs": [
        {
          "internalType": "string",
          "name": "",
          "type": "string"
        }
      ],
      "stateMutability": "view",
      "type": "function"
    },
    {
      "inputs": [
        {
          "internalType": "uint256",
          "name": "tokenId",
          "type": "uint256"
        }
      ],
      "name": "tokenURI",
      "outputs": [
        {
          "internalType": "string",
          "name": "",
          "type": "string"
        }
      ],
      "stateMutability": "view",
      "type": "function"
    },
    {
      "inputs": [
        {
          "internalType": "address",
          "name": "from",
          "type": "address"
        },
        {
          "internalType": "address",
          "name": "to",
          "type": "address"
        },
        {
          "internalType": "uint256",
          "name": "tokenId",
          "type": "uint256"
        }
      ],
      "name": "transferFrom",
      "outputs": [],
      "stateMutability": "nonpayable",
      "type": "function"
    }
  ],
  "bytecode": "0x6080604052600060085560405180610160016040528061012f8152602001620042a361012f9139600990805190602001906200003d92919062000734565b506040518060e001604052806040518060400160405280600581526020017f4f706f6c6500000000000000000000000000000000000000000000000000000081525081526020016040518060400160405280600781526020017f576177656c6e6f0000000000000000000000000000000000000000000000000081525081526020016040518060400160405280600881526020017f576172737a61776100000000000000000000000000000000000000000000000081525081526020016040518060400160405280600681526020017f4764616e736b000000000000000000000000000000000000000000000000000081525081526020016040518060400160405280600781526020017f57726f636c61770000000000000000000000000000000000000000000000000081525081526020016040518060400160405280600681526020017f4265726c696e000000000000000000000000000000000000000000000000000081525081526020016040518060400160405280600981526020017f536f736e6f776965630000000000000000000000000000000000000000000000815250815250600a906007620001f6929190620007c5565b506040518060e001604052806040518060400160405280600781526020017f4d61726975737a0000000000000000000000000000000000000000000000000081525081526020016040518060400160405280600781526020017f4d61746575737a0000000000000000000000000000000000000000000000000081525081526020016040518060400160405280600581526020017f4d6167646100000000000000000000000000000000000000000000000000000081525081526020016040518060400160405280600681526020017f4d696368616c000000000000000000000000000000000000000000000000000081525081526020016040518060400160405280600681526020017f57616c64656b000000000000000000000000000000000000000000000000000081525081526020016040518060400160405280600481526020017f4a6f72670000000000000000000000000000000000000000000000000000000081525081526020016040518060400160405280600681526020017f4b6f6e7261640000000000000000000000000000000000000000000000000000815250815250600b906007620003af929190620007c5565b506040518060e001604052806040518060400160405280600581526020017f507261777900000000000000000000000000000000000000000000000000000081525081526020016040518060400160405280600481526020017f4c6577790000000000000000000000000000000000000000000000000000000081525081526020016040518060400160405280600681526020017f536b6f736e79000000000000000000000000000000000000000000000000000081525081526020016040518060400160405280600581526020017f4e75646e7900000000000000000000000000000000000000000000000000000081525081526020016040518060400160405280600681526020017f537265646e69000000000000000000000000000000000000000000000000000081525081526020016040518060400160405280600481526020017f4d616c790000000000000000000000000000000000000000000000000000000081525081526020016040518060400160405280600681526020017f4b726f746b690000000000000000000000000000000000000000000000000000815250815250600c90600762000568929190620007c5565b503480156200057657600080fd5b506040518060400160405280600981526020017f5371756172654e465400000000000000000000000000000000000000000000008152506040518060400160405280600681526020017f53515541524500000000000000000000000000000000000000000000000000008152508160009080519060200190620005fb92919062000734565b5080600190805190602001906200061492919062000734565b505050620006626040518060400160405280601e81526020017f54686973206973206d79204e465420636f6e74726163742e2057686f612100008152506200066860201b6200126e1760201c565b620009e6565b62000708816040516024016200067f9190620008fa565b6040516020818303038152906040527f41304fac000000000000000000000000000000000000000000000000000000007bffffffffffffffffffffffffffffffffffffffffffffffffffffffff19166020820180517bffffffffffffffffffffffffffffffffffffffffffffffffffffffff83818316178352505050506200070b60201b60201c565b50565b60008151905060006a636f6e736f6c652e6c6f679050602083016000808483855afa5050505050565b828054620007429062000970565b90600052602060002090601f016020900481019282620007665760008555620007b2565b82601f106200078157805160ff1916838001178555620007b2565b82800160010185558215620007b2579182015b82811115620007b157825182559160200191906001019062000794565b5b509050620007c191906200082c565b5090565b82805482825590600052602060002090810192821562000819579160200282015b82811115620008185782518290805190602001906200080792919062000734565b5091602001919060010190620007e6565b5b5090506200082891906200084b565b5090565b5b80821115620008475760008160009055506001016200082d565b5090565b5b808211156200086f576000818162000865919062000873565b506001016200084c565b5090565b508054620008819062000970565b6000825580601f10620008955750620008b6565b601f016020900490600052602060002090810190620008b591906200082c565b5b50565b6000620008c6826200091e565b620008d2818562000929565b9350620008e48185602086016200093a565b620008ef81620009d5565b840191505092915050565b60006020820190508181036000830152620009168184620008b9565b905092915050565b600081519050919050565b600082825260208201905092915050565b60005b838110156200095a5780820151818401526020810190506200093d565b838111156200096a576000848401525b50505050565b600060028204905060018216806200098957607f821691505b60208210811415620009a0576200099f620009a6565b5b50919050565b7f4e487b7100000000000000000000000000000000000000000000000000000000600052602260045260246000fd5b6000601f19601f8301169050919050565b6138ad80620009f66000396000f3fe608060405234801561001057600080fd5b50600436106101165760003560e01c806370a08231116100a2578063b88d4fde11610071578063b88d4fde14610305578063c575757a14610321578063c87b56dd14610351578063de9d132f14610381578063e985e9c51461038b57610116565b806370a082311461026b57806395d89b411461029b578063a22cb465146102b9578063b187301f146102d557610116565b8063095ea7b3116100e9578063095ea7b3146101b757806323b872dd146101d35780632de38d68146101ef57806342842e0e1461021f5780636352211e1461023b57610116565b8063016776611461011b57806301ffc9a71461013957806306fdde0314610169578063081812fc14610187575b600080fd5b6101236103bb565b604051610130919061339e565b60405180910390f35b610153600480360381019061014e9190612501565b6103c1565b6040516101609190613123565b60405180910390f35b6101716104a3565b60405161017e919061313e565b60405180910390f35b6101a1600480360381019061019c9190612553565b610535565b6040516101ae9190613093565b60405180910390f35b6101d160048036038101906101cc91906124c5565b6105ba565b005b6101ed60048036038101906101e891906123bf565b6106d2565b005b61020960048036038101906102049190612553565b610732565b604051610216919061313e565b60405180910390f35b610239600480360381019061023491906123bf565b610847565b005b61025560048036038101906102509190612553565b610867565b6040516102629190613093565b60405180910390f35b6102856004803603810190610280919061235a565b610919565b604051610292919061339e565b60405180910390f35b6102a36109d1565b6040516102b0919061313e565b60405180910390f35b6102d360048036038101906102ce9190612489565b610a63565b005b6102ef60048036038101906102ea9190612553565b610be4565b6040516102fc919061313e565b60405180910390f35b61031f600480360381019061031a919061240e565b610cf9565b005b61033b60048036038101906103369190612553565b610d5b565b604051610348919061313e565b60405180910390f35b61036b60048036038101906103669190612553565b610e79565b604051610378919061313e565b60405180910390f35b610389610fcb565b005b6103a560048036038101906103a09190612383565b6111da565b6040516103b29190613123565b60405180910390f35b60085481565b60007f80ac58cd000000000000000000000000000000000000000000000000000000007bffffffffffffffffffffffffffffffffffffffffffffffffffffffff1916827bffffffffffffffffffffffffffffffffffffffffffffffffffffffff1916148061048c57507f5b5e139f000000000000000000000000000000000000000000000000000000007bffffffffffffffffffffffffffffffffffffffffffffffffffffffff1916827bffffffffffffffffffffffffffffffffffffffffffffffffffffffff1916145b8061049c575061049b82611307565b5b9050919050565b6060600080546104b29061363d565b80601f01602080910402602001604051908101604052809291908181526020018280546104de9061363d565b801561052b5780601f106105005761010080835404028352916020019161052b565b820191906000526020600020905b81548152906001019060200180831161050e57829003601f168201915b5050505050905090565b600061054082611371565b61057f576040517f08c379a0000000000000000000000000000000000000000000000000000000008152600401610576906132fe565b60405180910390fd5b6004600083815260200190815260200160002060009054906101000a900473ffffffffffffffffffffffffffffffffffffffff169050919050565b60006105c582610867565b90508073ffffffffffffffffffffffffffffffffffffffff168373ffffffffffffffffffffffffffffffffffffffff161415610636576040517f08c379a000000000000000000000000000000000000000000000000000000000815260040161062d9061335e565b60405180910390fd5b8073ffffffffffffffffffffffffffffffffffffffff166106556113dd565b73ffffffffffffffffffffffffffffffffffffffff16148061068457506106838161067e6113dd565b6111da565b5b6106c3576040517f08c379a00000000000000000000000000000000000000000000000000000000081526004016106ba9061323e565b60405180910390fd5b6106cd83836113e5565b505050565b6106e36106dd6113dd565b8261149e565b610722576040517f08c379a00000000000000000000000000000000000000000000000000000000081526004016107199061337e565b60405180910390fd5b61072d83838361157c565b505050565b60606000610766610742846117d8565b6040516020016107529190612fc6565b604051602081830303815290604052611985565b9050600a8054905081169050600a81815481106107ac577f4e487b7100000000000000000000000000000000000000000000000000000000600052603260045260246000fd5b9060005260206000200180546107c19061363d565b80601f01602080910402602001604051908101604052809291908181526020018280546107ed9061363d565b801561083a5780601f1061080f5761010080835404028352916020019161083a565b820191906000526020600020905b81548152906001019060200180831161081d57829003601f168201915b5050505050915050919050565b61086283838360405180602001604052806000815250610cf9565b505050565b6000806002600084815260200190815260200160002060009054906101000a900473ffffffffffffffffffffffffffffffffffffffff169050600073ffffffffffffffffffffffffffffffffffffffff168173ffffffffffffffffffffffffffffffffffffffff161415610910576040517f08c379a00000000000000000000000000000000000000000000000000000000081526004016109079061327e565b60405180910390fd5b80915050919050565b60008073ffffffffffffffffffffffffffffffffffffffff168273ffffffffffffffffffffffffffffffffffffffff16141561098a576040517f08c379a00000000000000000000000000000000000000000000000000000000081526004016109819061325e565b60405180910390fd5b600360008373ffffffffffffffffffffffffffffffffffffffff1673ffffffffffffffffffffffffffffffffffffffff168152602001908152602001600020549050919050565b6060600180546109e09061363d565b80601f0160208091040260200160405190810160405280929190818152602001828054610a0c9061363d565b8015610a595780601f10610a2e57610100808354040283529160200191610a59565b820191906000526020600020905b815481529060010190602001808311610a3c57829003601f168201915b5050505050905090565b610a6b6113dd565b73ffffffffffffffffffffffffffffffffffffffff168273ffffffffffffffffffffffffffffffffffffffff161415610ad9576040517f08c379a0000000000000000000000000000000000000000000000000000000008152600401610ad0906131fe565b60405180910390fd5b8060056000610ae66113dd565b73ffffffffffffffffffffffffffffffffffffffff1673ffffffffffffffffffffffffffffffffffffffff16815260200190815260200160002060008473ffffffffffffffffffffffffffffffffffffffff1673ffffffffffffffffffffffffffffffffffffffff16815260200190815260200160002060006101000a81548160ff0219169083151502179055508173ffffffffffffffffffffffffffffffffffffffff16610b936113dd565b73ffffffffffffffffffffffffffffffffffffffff167f17307eab39ab6107e8899845ad3d59bd9653f200f220920489ca2b5937696c3183604051610bd89190613123565b60405180910390a35050565b60606000610c18610bf4846117d8565b604051602001610c049190613071565b604051602081830303815290604052611985565b9050600b8054905081169050600b8181548110610c5e577f4e487b7100000000000000000000000000000000000000000000000000000000600052603260045260246000fd5b906000526020600020018054610c739061363d565b80601f0160208091040260200160405190810160405280929190818152602001828054610c9f9061363d565b8015610cec5780601f10610cc157610100808354040283529160200191610cec565b820191906000526020600020905b815481529060010190602001808311610ccf57829003601f168201915b5050505050915050919050565b610d0a610d046113dd565b8361149e565b610d49576040517f08c379a0000000000000000000000000000000000000000000000000000000008152600401610d409061337e565b60405180910390fd5b610d55848484846119b8565b50505050565b60606000610d8f610d6b846117d8565b604051602001610d7b9190612fe8565b604051602081830303815290604052611985565b9050600c8054905081610da291906136b8565b9050600c8181548110610dde577f4e487b7100000000000000000000000000000000000000000000000000000000600052603260045260246000fd5b906000526020600020018054610df39061363d565b80601f0160208091040260200160405190810160405280929190818152602001828054610e1f9061363d565b8015610e6c5780601f10610e4157610100808354040283529160200191610e6c565b820191906000526020600020905b815481529060010190602001808311610e4f57829003601f168201915b5050505050915050919050565b6060610e8482611371565b610ec3576040517f08c379a0000000000000000000000000000000000000000000000000000000008152600401610eba906132de565b60405180910390fd5b6000600660008481526020019081526020016000208054610ee39061363d565b80601f0160208091040260200160405190810160405280929190818152602001828054610f0f9061363d565b8015610f5c5780601f10610f3157610100808354040283529160200191610f5c565b820191906000526020600020905b815481529060010190602001808311610f3f57829003601f168201915b505050505090506000610f6d611a14565b9050600081511415610f83578192505050610fc6565b600082511115610fb8578082604051602001610fa0929190612f42565b60405160208183030381529060405292505050610fc6565b610fc184611a2b565b925050505b919050565b6000610fd76007611ad2565b9050601d811115610fe757600080fd5b6000610ff282610732565b90506000610fff83610be4565b9050600061100c84610d5b565b9050600083838360405160200161102593929190612f66565b6040516020818303038152906040529050600060098260405160200161104c929190612f97565b604051602081830303815290604052905060006110918361106c84611ae0565b60405160200161107d92919061300a565b604051602081830303815290604052611ae0565b90506000816040516020016110a6919061304f565b60405160208183030381529060405290506110f56040518060400160405280601581526020017f0a2d2d2d2d2d2d2d2d2d2d2d2d2d2d2d2d2d2d2d2d000000000000000000000081525061126e565b6110fe8361126e565b61113c6040518060400160405280601581526020017f2d2d2d2d2d2d2d2d2d2d2d2d2d2d2d2d2d2d2d2d0a000000000000000000000081525061126e565b6111463389611c9e565b6111508882611cbc565b61115a6007611d30565b61117d604051806060016040528060258152602001613813602591398933611d46565b6001600860008282546111909190613472565b925050819055507febb98688741ffa4c7589bf325de30cf7becb63de567842e1ccdb6cb949fdc82c33896040516111c89291906130fa565b60405180910390a15050505050505050565b6000600560008473ffffffffffffffffffffffffffffffffffffffff1673ffffffffffffffffffffffffffffffffffffffff16815260200190815260200160002060008373ffffffffffffffffffffffffffffffffffffffff1673ffffffffffffffffffffffffffffffffffffffff16815260200190815260200160002060009054906101000a900460ff16905092915050565b61130481604051602401611282919061313e565b6040516020818303038152906040527f41304fac000000000000000000000000000000000000000000000000000000007bffffffffffffffffffffffffffffffffffffffffffffffffffffffff19166020820180517bffffffffffffffffffffffffffffffffffffffffffffffffffffffff8381831617835250505050611de5565b50565b60007f01ffc9a7000000000000000000000000000000000000000000000000000000007bffffffffffffffffffffffffffffffffffffffffffffffffffffffff1916827bffffffffffffffffffffffffffffffffffffffffffffffffffffffff1916149050919050565b60008073ffffffffffffffffffffffffffffffffffffffff166002600084815260200190815260200160002060009054906101000a900473ffffffffffffffffffffffffffffffffffffffff1673ffffffffffffffffffffffffffffffffffffffff1614159050919050565b600033905090565b816004600083815260200190815260200160002060006101000a81548173ffffffffffffffffffffffffffffffffffffffff021916908373ffffffffffffffffffffffffffffffffffffffff160217905550808273ffffffffffffffffffffffffffffffffffffffff1661145883610867565b73ffffffffffffffffffffffffffffffffffffffff167f8c5be1e5ebec7d5bd14f71427d1e84f3dd0314c0f7b2291e5b200ac8c7c3b92560405160405180910390a45050565b60006114a982611371565b6114e8576040517f08c379a00000000000000000000000000000000000000000000000000000000081526004016114df9061321e565b60405180910390fd5b60006114f383610867565b90508073ffffffffffffffffffffffffffffffffffffffff168473ffffffffffffffffffffffffffffffffffffffff16148061156257508373ffffffffffffffffffffffffffffffffffffffff1661154a84610535565b73ffffffffffffffffffffffffffffffffffffffff16145b80611573575061157281856111da565b5b91505092915050565b8273ffffffffffffffffffffffffffffffffffffffff1661159c82610867565b73ffffffffffffffffffffffffffffffffffffffff16146115f2576040517f08c379a00000000000000000000000000000000000000000000000000000000081526004016115e99061331e565b60405180910390fd5b600073ffffffffffffffffffffffffffffffffffffffff168273ffffffffffffffffffffffffffffffffffffffff161415611662576040517f08c379a0000000000000000000000000000000000000000000000000000000008152600401611659906131de565b60405180910390fd5b61166d838383611e0e565b6116786000826113e5565b6001600360008573ffffffffffffffffffffffffffffffffffffffff1673ffffffffffffffffffffffffffffffffffffffff16815260200190815260200160002060008282546116c89190613553565b925050819055506001600360008473ffffffffffffffffffffffffffffffffffffffff1673ffffffffffffffffffffffffffffffffffffffff168152602001908152602001600020600082825461171f9190613472565b92505081905550816002600083815260200190815260200160002060006101000a81548173ffffffffffffffffffffffffffffffffffffffff021916908373ffffffffffffffffffffffffffffffffffffffff160217905550808273ffffffffffffffffffffffffffffffffffffffff168473ffffffffffffffffffffffffffffffffffffffff167fddf252ad1be2c89b69c2b068fc378daa952ba7f163c4a11628f55a4df523b3ef60405160405180910390a4505050565b60606000821415611820576040518060400160405280600181526020017f30000000000000000000000000000000000000000000000000000000000000008152509050611980565b600082905060005b6000821461185257808061183b9061366f565b915050600a8261184b91906134c8565b9150611828565b60008167ffffffffffffffff811115611894577f4e487b7100000000000000000000000000000000000000000000000000000000600052604160045260246000fd5b6040519080825280601f01601f1916602001820160405280156118c65781602001600182028036833780820191505090505b5090505b60008514611979576001826118df9190613553565b9150600a856118ee91906136b8565b60306118fa9190613472565b60f81b818381518110611936577f4e487b7100000000000000000000000000000000000000000000000000000000600052603260045260246000fd5b60200101907effffffffffffffffffffffffffffffffffffffffffffffffffffffffffffff1916908160001a905350600a8561197291906134c8565b94506118ca565b8093505050505b919050565b6000816040516020016119989190612f2b565b6040516020818303038152906040528051906020012060001c9050919050565b6119c384848461157c565b6119cf84848484611e13565b611a0e576040517f08c379a0000000000000000000000000000000000000000000000000000000008152600401611a059061319e565b60405180910390fd5b50505050565b606060405180602001604052806000815250905090565b6060611a3682611371565b611a75576040517f08c379a0000000000000000000000000000000000000000000000000000000008152600401611a6c9061333e565b60405180910390fd5b6000611a7f611a14565b90506000815111611a9f5760405180602001604052806000815250611aca565b80611aa9846117d8565b604051602001611aba929190612f42565b6040516020818303038152906040525b915050919050565b600081600001549050919050565b60606000825190506000811415611b095760405180602001604052806000815250915050611c99565b60006003600283611b1a9190613472565b611b2491906134c8565b6004611b3091906134f9565b90506000602082611b419190613472565b67ffffffffffffffff811115611b80577f4e487b7100000000000000000000000000000000000000000000000000000000600052604160045260246000fd5b6040519080825280601f01601f191660200182016040528015611bb25781602001600182028036833780820191505090505b5090506000604051806060016040528060408152602001613838604091399050600181016020830160005b86811015611c565760038101905062ffffff818a015116603f8160121c168401518060081b905060ff603f83600c1c1686015116810190508060081b905060ff603f8360061c1686015116810190508060081b905060ff603f831686015116810190508060e01b90508084526004840193505050611bdd565b506003860660018114611c705760028114611c8057611c8b565b613d3d60f01b6002830352611c8b565b603d60f81b60018303525b508484525050819450505050505b919050565b611cb8828260405180602001604052806000815250611faa565b5050565b611cc582611371565b611d04576040517f08c379a0000000000000000000000000000000000000000000000000000000008152600401611cfb9061329e565b60405180910390fd5b80600660008481526020019081526020016000209080519060200190611d2b9291906121e6565b505050565b6001816000016000828254019250508190555050565b611de0838383604051602401611d5e93929190613160565b6040516020818303038152906040527fe3849f79000000000000000000000000000000000000000000000000000000007bffffffffffffffffffffffffffffffffffffffffffffffffffffffff19166020820180517bffffffffffffffffffffffffffffffffffffffffffffffffffffffff8381831617835250505050611de5565b505050565b60008151905060006a636f6e736f6c652e6c6f679050602083016000808483855afa5050505050565b505050565b6000611e348473ffffffffffffffffffffffffffffffffffffffff16612005565b15611f9d578373ffffffffffffffffffffffffffffffffffffffff1663150b7a02611e5d6113dd565b8786866040518563ffffffff1660e01b8152600401611e7f94939291906130ae565b602060405180830381600087803b158015611e9957600080fd5b505af1925050508015611eca57506040513d601f19601f82011682018060405250810190611ec7919061252a565b60015b611f4d573d8060008114611efa576040519150601f19603f3d011682016040523d82523d6000602084013e611eff565b606091505b50600081511415611f45576040517f08c379a0000000000000000000000000000000000000000000000000000000008152600401611f3c9061319e565b60405180910390fd5b805181602001fd5b63150b7a0260e01b7bffffffffffffffffffffffffffffffffffffffffffffffffffffffff1916817bffffffffffffffffffffffffffffffffffffffffffffffffffffffff191614915050611fa2565b600190505b949350505050565b611fb48383612018565b611fc16000848484611e13565b612000576040517f08c379a0000000000000000000000000000000000000000000000000000000008152600401611ff79061319e565b60405180910390fd5b505050565b600080823b905060008111915050919050565b600073ffffffffffffffffffffffffffffffffffffffff168273ffffffffffffffffffffffffffffffffffffffff161415612088576040517f08c379a000000000000000000000000000000000000000000000000000000000815260040161207f906132be565b60405180910390fd5b61209181611371565b156120d1576040517f08c379a00000000000000000000000000000000000000000000000000000000081526004016120c8906131be565b60405180910390fd5b6120dd60008383611e0e565b6001600360008473ffffffffffffffffffffffffffffffffffffffff1673ffffffffffffffffffffffffffffffffffffffff168152602001908152602001600020600082825461212d9190613472565b92505081905550816002600083815260200190815260200160002060006101000a81548173ffffffffffffffffffffffffffffffffffffffff021916908373ffffffffffffffffffffffffffffffffffffffff160217905550808273ffffffffffffffffffffffffffffffffffffffff16600073ffffffffffffffffffffffffffffffffffffffff167fddf252ad1be2c89b69c2b068fc378daa952ba7f163c4a11628f55a4df523b3ef60405160405180910390a45050565b8280546121f29061363d565b90600052602060002090601f016020900481019282612214576000855561225b565b82601f1061222d57805160ff191683800117855561225b565b8280016001018555821561225b579182015b8281111561225a57825182559160200191906001019061223f565b5b509050612268919061226c565b5090565b5b8082111561228557600081600090555060010161226d565b5090565b600061229c612297846133ea565b6133b9565b9050828152602081018484840111156122b457600080fd5b6122bf8482856135fb565b509392505050565b6000813590506122d6816137b6565b92915050565b6000813590506122eb816137cd565b92915050565b600081359050612300816137e4565b92915050565b600081519050612315816137e4565b92915050565b600082601f83011261232c57600080fd5b813561233c848260208601612289565b91505092915050565b600081359050612354816137fb565b92915050565b60006020828403121561236c57600080fd5b600061237a848285016122c7565b91505092915050565b6000806040838503121561239657600080fd5b60006123a4858286016122c7565b92505060206123b5858286016122c7565b9150509250929050565b6000806000606084860312156123d457600080fd5b60006123e2868287016122c7565b93505060206123f3868287016122c7565b925050604061240486828701612345565b9150509250925092565b6000806000806080858703121561242457600080fd5b6000612432878288016122c7565b9450506020612443878288016122c7565b935050604061245487828801612345565b925050606085013567ffffffffffffffff81111561247157600080fd5b61247d8782880161231b565b91505092959194509250565b6000806040838503121561249c57600080fd5b60006124aa858286016122c7565b92505060206124bb858286016122dc565b9150509250929050565b600080604083850312156124d857600080fd5b60006124e6858286016122c7565b92505060206124f785828601612345565b9150509250929050565b60006020828403121561251357600080fd5b6000612521848285016122f1565b91505092915050565b60006020828403121561253c57600080fd5b600061254a84828501612306565b91505092915050565b60006020828403121561256557600080fd5b600061257384828501612345565b91505092915050565b61258581613587565b82525050565b61259481613599565b82525050565b60006125a58261342f565b6125af8185613445565b93506125bf81856020860161360a565b6125c8816137a5565b840191505092915050565b60006125de8261343a565b6125e88185613456565b93506125f881856020860161360a565b612601816137a5565b840191505092915050565b60006126178261343a565b6126218185613467565b935061263181856020860161360a565b80840191505092915050565b6000815461264a8161363d565b6126548186613467565b9450600182166000811461266f5760018114612680576126b3565b60ff198316865281860193506126b3565b6126898561341a565b60005b838110156126ab5781548189015260018201915060208101905061268c565b838801955050505b50505092915050565b60006126c9600a83613467565b91507f464952535420574f5244000000000000000000000000000000000000000000006000830152600a82019050919050565b6000612709603283613456565b91507f4552433732313a207472616e7366657220746f206e6f6e20455243373231526560008301527f63656976657220696d706c656d656e74657200000000000000000000000000006020830152604082019050919050565b600061276f601c83613456565b91507f4552433732313a20746f6b656e20616c7265616479206d696e746564000000006000830152602082019050919050565b60006127af600a83613467565b91507f54484952445f574f5244000000000000000000000000000000000000000000006000830152600a82019050919050565b60006127ef602483613456565b91507f4552433732313a207472616e7366657220746f20746865207a65726f2061646460008301527f72657373000000000000000000000000000000000000000000000000000000006020830152604082019050919050565b6000612855601983613456565b91507f4552433732313a20617070726f766520746f2063616c6c6572000000000000006000830152602082019050919050565b6000612895606383613467565b91507f222c20226465736372697074696f6e223a20224120686967686c79206163636c60008301527f61696d656420636f6c6c656374696f6e206f6620737175617265732e222c202260208301527f696d616765223a2022646174613a696d6167652f7376672b786d6c3b6261736560408301527f36342c00000000000000000000000000000000000000000000000000000000006060830152606382019050919050565b6000612947602c83613456565b91507f4552433732313a206f70657261746f7220717565727920666f72206e6f6e657860008301527f697374656e7420746f6b656e00000000000000000000000000000000000000006020830152604082019050919050565b60006129ad600d83613467565b91507f3c2f746578743e3c2f7376673e000000000000000000000000000000000000006000830152600d82019050919050565b60006129ed603883613456565b91507f4552433732313a20617070726f76652063616c6c6572206973206e6f74206f7760008301527f6e6572206e6f7220617070726f76656420666f7220616c6c00000000000000006020830152604082019050919050565b6000612a53602a83613456565b91507f4552433732313a2062616c616e636520717565727920666f7220746865207a6560008301527f726f2061646472657373000000000000000000000000000000000000000000006020830152604082019050919050565b6000612ab9602983613456565b91507f4552433732313a206f776e657220717565727920666f72206e6f6e657869737460008301527f656e7420746f6b656e00000000000000000000000000000000000000000000006020830152604082019050919050565b6000612b1f602e83613456565b91507f45524337323155524953746f726167653a2055524920736574206f66206e6f6e60008301527f6578697374656e7420746f6b656e0000000000000000000000000000000000006020830152604082019050919050565b6000612b85600283613467565b91507f227d0000000000000000000000000000000000000000000000000000000000006000830152600282019050919050565b6000612bc5602083613456565b91507f4552433732313a206d696e7420746f20746865207a65726f20616464726573736000830152602082019050919050565b6000612c05603183613456565b91507f45524337323155524953746f726167653a2055524920717565727920666f722060008301527f6e6f6e6578697374656e7420746f6b656e0000000000000000000000000000006020830152604082019050919050565b6000612c6b602c83613456565b91507f4552433732313a20617070726f76656420717565727920666f72206e6f6e657860008301527f697374656e7420746f6b656e00000000000000000000000000000000000000006020830152604082019050919050565b6000612cd1602983613456565b91507f4552433732313a207472616e73666572206f6620746f6b656e2074686174206960008301527f73206e6f74206f776e00000000000000000000000000000000000000000000006020830152604082019050919050565b6000612d37602f83613456565b91507f4552433732314d657461646174613a2055524920717565727920666f72206e6f60008301527f6e6578697374656e7420746f6b656e00000000000000000000000000000000006020830152604082019050919050565b6000612d9d600a83613467565b91507f7b226e616d65223a2022000000000000000000000000000000000000000000006000830152600a82019050919050565b6000612ddd602183613456565b91507f4552433732313a20617070726f76616c20746f2063757272656e74206f776e6560008301527f72000000000000000000000000000000000000000000000000000000000000006020830152604082019050919050565b6000612e43601d83613467565b91507f646174613a6170706c69636174696f6e2f6a736f6e3b6261736536342c0000006000830152601d82019050919050565b6000612e83603183613456565b91507f4552433732313a207472616e736665722063616c6c6572206973206e6f74206f60008301527f776e6572206e6f7220617070726f7665640000000000000000000000000000006020830152604082019050919050565b6000612ee9600b83613467565b91507f5345434f4e4420574f52440000000000000000000000000000000000000000006000830152600b82019050919050565b612f25816135f1565b82525050565b6000612f37828461260c565b915081905092915050565b6000612f4e828561260c565b9150612f5a828461260c565b91508190509392505050565b6000612f72828661260c565b9150612f7e828561260c565b9150612f8a828461260c565b9150819050949350505050565b6000612fa3828561263d565b9150612faf828461260c565b9150612fba826129a0565b91508190509392505050565b6000612fd1826126bc565b9150612fdd828461260c565b915081905092915050565b6000612ff3826127a2565b9150612fff828461260c565b915081905092915050565b600061301582612d90565b9150613021828561260c565b915061302c82612888565b9150613038828461260c565b915061304382612b78565b91508190509392505050565b600061305a82612e36565b9150613066828461260c565b915081905092915050565b600061307c82612edc565b9150613088828461260c565b915081905092915050565b60006020820190506130a8600083018461257c565b92915050565b60006080820190506130c3600083018761257c565b6130d0602083018661257c565b6130dd6040830185612f1c565b81810360608301526130ef818461259a565b905095945050505050565b600060408201905061310f600083018561257c565b61311c6020830184612f1c565b9392505050565b6000602082019050613138600083018461258b565b92915050565b6000602082019050818103600083015261315881846125d3565b905092915050565b6000606082019050818103600083015261317a81866125d3565b90506131896020830185612f1c565b613196604083018461257c565b949350505050565b600060208201905081810360008301526131b7816126fc565b9050919050565b600060208201905081810360008301526131d781612762565b9050919050565b600060208201905081810360008301526131f7816127e2565b9050919050565b6000602082019050818103600083015261321781612848565b9050919050565b600060208201905081810360008301526132378161293a565b9050919050565b60006020820190508181036000830152613257816129e0565b9050919050565b6000602082019050818103600083015261327781612a46565b9050919050565b6000602082019050818103600083015261329781612aac565b9050919050565b600060208201905081810360008301526132b781612b12565b9050919050565b600060208201905081810360008301526132d781612bb8565b9050919050565b600060208201905081810360008301526132f781612bf8565b9050919050565b6000602082019050818103600083015261331781612c5e565b9050919050565b6000602082019050818103600083015261333781612cc4565b9050919050565b6000602082019050818103600083015261335781612d2a565b9050919050565b6000602082019050818103600083015261337781612dd0565b9050919050565b6000602082019050818103600083015261339781612e76565b9050919050565b60006020820190506133b36000830184612f1c565b92915050565b6000604051905081810181811067ffffffffffffffff821117156133e0576133df613776565b5b8060405250919050565b600067ffffffffffffffff82111561340557613404613776565b5b601f19601f8301169050602081019050919050565b60008190508160005260206000209050919050565b600081519050919050565b600081519050919050565b600082825260208201905092915050565b600082825260208201905092915050565b600081905092915050565b600061347d826135f1565b9150613488836135f1565b9250827fffffffffffffffffffffffffffffffffffffffffffffffffffffffffffffffff038211156134bd576134bc6136e9565b5b828201905092915050565b60006134d3826135f1565b91506134de836135f1565b9250826134ee576134ed613718565b5b828204905092915050565b6000613504826135f1565b915061350f836135f1565b9250817fffffffffffffffffffffffffffffffffffffffffffffffffffffffffffffffff0483118215151615613548576135476136e9565b5b828202905092915050565b600061355e826135f1565b9150613569836135f1565b92508282101561357c5761357b6136e9565b5b828203905092915050565b6000613592826135d1565b9050919050565b60008115159050919050565b60007fffffffff0000000000000000000000000000000000000000000000000000000082169050919050565b600073ffffffffffffffffffffffffffffffffffffffff82169050919050565b6000819050919050565b82818337600083830152505050565b60005b8381101561362857808201518184015260208101905061360d565b83811115613637576000848401525b50505050565b6000600282049050600182168061365557607f821691505b6020821081141561366957613668613747565b5b50919050565b600061367a826135f1565b91507fffffffffffffffffffffffffffffffffffffffffffffffffffffffffffffffff8214156136ad576136ac6136e9565b5b600182019050919050565b60006136c3826135f1565b91506136ce836135f1565b9250826136de576136dd613718565b5b828206905092915050565b7f4e487b7100000000000000000000000000000000000000000000000000000000600052601160045260246000fd5b7f4e487b7100000000000000000000000000000000000000000000000000000000600052601260045260246000fd5b7f4e487b7100000000000000000000000000000000000000000000000000000000600052602260045260246000fd5b7f4e487b7100000000000000000000000000000000000000000000000000000000600052604160045260246000fd5b6000601f19601f8301169050919050565b6137bf81613587565b81146137ca57600080fd5b50565b6137d681613599565b81146137e157600080fd5b50565b6137ed816135a5565b81146137f857600080fd5b50565b613804816135f1565b811461380f57600080fd5b5056fe416e204e465420772f20494420257320686173206265656e206d696e74656420746f2025734142434445464748494a4b4c4d4e4f505152535455565758595a6162636465666768696a6b6c6d6e6f707172737475767778797a303132333435363738392b2fa26469706673582212207c132a24d33ce24e3f37b832aec603322a53da03dbb436c32f69cbd75366205264736f6c634300080000333c73766720786d6c6e733d27687474703a2f2f7777772e77332e6f72672f323030302f73766727207072657365727665417370656374526174696f3d27784d696e594d696e206d656574272076696577426f783d273020302033353020333530273e3c7374796c653e2e62617365207b2066696c6c3a2077686974653b20666f6e742d66616d696c793a2073657269663b20666f6e742d73697a653a20323470783b207d3c2f7374796c653e3c726563742077696474683d273130302527206865696768743d2731303025272066696c6c3d27626c61636b27202f3e3c7465787420783d273530252720793d273530252720636c6173733d27626173652720646f6d696e616e742d626173656c696e653d276d6964646c652720746578742d616e63686f723d276d6964646c65273e",
  "linkReferences": {},
  "deployedLinkReferences": {}
}